S016000070726F6A65746F2D6D6963726F732E7372656351
S11300000C9434000C9449000C9449000C9449005D
S11300100C9449000C9449000C9449000C94490038
S11300200C9449000C9449000C9449000C94490028
S11300300C9449000C9449000C9449000C94490018
S11300400C9449000C9449000C9449000C94490008
S11300500C9449000C9449000C9449000C944900F8
S11300600C9449000C94490011241FBECFEFD8E032
S1130070DEBFCDBF11E0A0E0B1E0EEE8F1E002C0E8
S113008005900D92AE30B107D9F70E944B000C9445
S1130090C5000C940000CF93DF931F92CDB7DEB759
S11300A0259A40E950ED63E070E0CE0101960E948C
S11300B06D0010E285B1812785B960E071E0CE0161
S11300C001960E948A002FEF89E698E12150804032
S11300D09040E1F700C00000EDCF9A01AB0160E46D
S11300E072E48FE090E00E94A30021503109309324
S11300F0C5002093C40088E08093C1008EE0809303
S1130100C2000895E0ECF0E0808185FFFDCF6093AC
S1130110C60008950F931F93CF93DF938C01EB01D7
S11301206881662339F02196C8010E948200699192
S11301306111FACF6AE0C8010E948200DF91CF9179
S11301401F910F910895A1E21A2EAA1BBB1BFD015A
S11301500DC0AA1FBB1FEE1FFF1FA217B307E407A2
S1130160F50720F0A21BB30BE40BF50B661F771FFA
S1130170881F991F1A9469F76095709580959095DA
S11101809B01AC01BD01CF010895F894FFCF9F
S111018E476976616C646F204C696E6F0000E7
S9030000FC
